:020000041004E6
:100000000060002015110410711404107314041002
:10001000AA5555AA45554C420000000000000000BA
:100020000000000000000000000000007514041033
:100030000000000000000000CD1004107714041030
:100040007F140410CF100410000000000000000016
:1000500081140410D110041089140410DD10041050
:100060000000000000000000000000000000000090
:1000700000000000DF100410E1100410E310041071
:1000800000000000D3100410D5100410D710041085
:10009000D9100410DB100410C9100410CB10041088
:1000A0000000000000000000000000000000000050
:1000B0000000000000000000000000000000000040
:1000C000F0B543464C4655465E466746F8B4104C7C
:1000D0006B4623600F4C20680F4C20600F4C20684B
:1000E0000F4C20600F4C20680F4C2060BFF34F8FE7
:1000F00030BF074C2468A546F8BC9846A146AA46DE
:10010000B346BC46F0BDC04630BFC0467047C0468F
:100110000800002004ED00E0FC0A002024ED00E0CF
:10012000F80A002000E200E0000B00200023C25C7F
:100130000133002AFBD1581E7047000000224308FB
:100140008B4274D303098B425FD3030A8B4244D39F
:10015000030B8B4228D3030C8B420DD3FF220902E1
:1001600012BA030C8B4202D31212090265D0030BA0
:100170008B4219D300E0090AC30B8B4201D3CB0396
:10018000C01A5241830B8B4201D38B03C01A5241D8
:10019000430B8B4201D34B03C01A5241030B8B42DA
:1001A00001D30B03C01A5241C30A8B4201D3CB02C5
:1001B000C01A5241830A8B4201D38B02C01A5241AA
:1001C000430A8B4201D34B02C01A5241030A8B42AD
:1001D00001D30B02C01A5241CDD2C3098B4201D3C5
:1001E000CB01C01A524183098B4201D38B01C01A43
:1001F000524143098B4201D34B01C01A52410309BA
:100200008B4201D30B01C01A5241C3088B4201D368
:10021000CB00C01A524183088B4201D38B00C01A15
:10022000524143088B4201D34B00C01A5241411A3C
:1002300000D20146524110467047FFE701B5002049
:1002400000F0F0F802BDC0460029F7D076E770470D
:1002500003460B437FD4002243088B4274D3030927
:100260008B425FD3030A8B4244D3030B8B4228D3C8
:10027000030C8B420DD3FF22090212BA030C8B42EE
:1002800002D31212090265D0030B8B4219D300E08E
:10029000090AC30B8B4201D3CB03C01A5241830B13
:1002A0008B4201D38B03C01A5241430B8B4201D3C3
:1002B0004B03C01A5241030B8B4201D30B03C01AEC
:1002C0005241C30A8B4201D3CB02C01A5241830A66
:1002D0008B4201D38B02C01A5241430A8B4201D395
:1002E0004B02C01A5241030A8B4201D30B02C01ABF
:1002F0005241CDD2C3098B4201D3CB01C01A524126
:1003000083098B4201D38B01C01A524143098B42AE
:1003100001D34B01C01A524103098B4201D30B0197
:10032000C01A5241C3088B4201D3CB00C01A5241BC
:1003300083088B4201D38B00C01A524143088B4281
:1003400001D34B00C01A5241411A00D2014652411A
:10035000104670475DE0CA0F00D04942031000D339
:100360004042534000229C4603098B422DD3030A8E
:100370008B4212D3FC22890112BA030A8B420CD39E
:10038000890192118B4208D3890192118B4204D3C7
:1003900089013AD0921100E08909C3098B4201D347
:1003A000CB01C01A524183098B4201D38B01C01A81
:1003B000524143098B4201D34B01C01A52410309F8
:1003C0008B4201D30B01C01A5241C3088B4201D3A7
:1003D000CB00C01A524183088B4201D38B00C01A54
:1003E0005241D9D243088B4201D34B00C01A52412B
:1003F000411A00D20146634652415B10104601D3B8
:100400004042002B00D54942704763465B1000D341
:10041000404201B5002000F005F802BD0029F8D0E7
:1004200016E770477047C0468446081C6146FFE7E0
:100430001FB500F0D3F8002801D40021C8421FBD29
:1004400010B500F065F84042013010BD10B500F065
:10045000C5F8002801DB002010BD012010BDC046FA
:1004600010B500F0BBF8002801DD002010BD012010
:1004700010BDC04610B500F071F8002801DC002066
:1004800010BD012010BDC04610B500F067F800286F
:1004900001DA002010BD012010BDC046437802786B
:1004A0001B021A438378C0781B04134300061843C9
:1004B0007047C046030A4B70030C8B70030E087024
:1004C000CB70704703005A78007812020243987884
:1004D000197900040243D878000610435A791202B1
:1004E0000A43997909040A43D979090611437047E7
:1004F000030A5370030C9370030ED3700B0A5371ED
:100500000B0C93710B0E10701171D3717047C046B4
:1005100070B5420045024E024C00C30F6D0A120E28
:10052000760A240EC90F0120FF2A06D0FF2C03D023
:10053000A24201D1B54206D070BD002DFCD1FF2CE6
:10054000FAD1002EF8D18B4206D00120002AF3D137
:100550002800451EA841EFE70020EDE7F0B5420076
:1005600045024C02C30F48006D0A120E640A000EC9
:10057000C90FFF2A1ED0FF2821D0002A0AD16E42BF
:100580006E41F6B200280FD1002C0DD10020002DB5
:1005900009D005E0002801D1002C01D08B4211D0F8
:1005A000012158420843F0BD002EF7D00120013947
:1005B0000843F8E7002DDED002204042F3E7002C8C
:1005C000DBD0F9E78242EBDC04DBA542E8D800206F
:1005D000A542E8D20121581E0843E4E7F0B54200E5
:1005E0004D024C004602760A120EC30F6D0A240E0D
:1005F000C90FFF2A16D0FF2C18D0002A0AD170424A
:100600007041C0B2002C15D0002805D0012001395E
:100610000843F0BD002C13D0994214D001205B4256
:100620001843F6E70220002EF3D1E4E70220002D64
:10063000EFD1E2E7002DE7D10020002EE9D0EDE771
:10064000002DE9D1EAE7A24206DCDFDBAE4203D8A7
:100650000020AE42DAD3DCE7012049420843D8E764
:10066000F8B557464E464546DE46E0B547024600D9
:1006700088467F0A360EC40F002E47D0FF2E24D0A6
:10068000FB008027FF041F43002399469A467F3EC4
:1006900043465D025800DB0F6D0A000E984643D0BA
:1006A000FF283BD0EB0080250022ED041D437F385E
:1006B0003618731C41469B464B46614013430F2B33
:1006C00064D875489B00C3589F46002F42D1082329
:1006D0009946063BFF269A46DAE74146022A28D089
:1006E000032A00D1CEE0012A00D0ACE01140002066
:1006F0000022CCB24002D205400AE4071043204356
:100700003CBC90469946A246AB46F8BD002F15D199
:1007100004239946033B00269A46B9E7FF200222AC
:10072000002DC5D00322C3E7002D19D100200122DE
:10073000BEE70124FF220C400020DBE7380000F078
:1007400059F97626431F9F4000237642361A994670
:100750009A469DE70C239946093BFF269A4697E760
:10076000280000F047F9431F9D4076235B42181A8A
:1007700000229DE780200024C003FF22BAE73D004D
:100780005246ABE73D0021005246A7E73B0C9C4692
:100790002A04120C2B0C1400604665463F043F0CE3
:1007A0007C4342435D437B43270C9B18FF18BA42AE
:1007B00003D980235B029C46654424043A04240C3C
:1007C000121993015C1EA3413F0C920E7D191A432E
:1007D000AD0115432B0104D501235E466A081D4077
:1007E000154332007F32002A25DD6B0704D00F232A
:1007F0002B40042B00D004352B0103D53200274BAE
:1008000080321D40FE2A94DC0124A801400AD2B2A5
:100810000C406FE78020C003074207D0054205D196
:1008200028434002400A4446FF2263E7384340021F
:10083000400AFF225EE70124A31A1B2B05DD0C40B2
:100840000022002056E75E46CBE72A002020DA404F
:10085000C31A9D402B005D1EAB4113435A0704D0C1
:100860000F221A40042A00D004335A0104D501246F
:1008700001220C4000203DE701249B01580A0C4056
:10088000002237E780200124C00328434002400AA9
:100890000C40FF222EE7C046801C0410FFFFFFF72C
:1008A00041024300C20F490A1B0E00207E2B0DDDC2
:1008B0009D2B0CDC802000040143952B0ADC962044
:1008C000C31AD9404842002A00D108007047034BA0
:1008D000D018FBE7963B9940F4E7C046FFFFFF7F47
:1008E000F0B54C00640D0B03621C450F5B0A52050A
:1008F0002B43C90FC500520D012A28DD3A4AA6181C
:10090000FE2E1BDC002E3EDD80010200501E8241C7
:100910006D0F2A43DB0013435A0704D00F221A40FD
:10092000042A00D004338022D2041A405AD001365F
:10093000FF2E03D09B015B0AF4B201E0FF240023E9
:100940005802E405400AC90720430843F0BD002CC3
:1009500007D01D43F2D08020DB0080040343FF2634
:10096000DAE72B4303D00523DB08FF2C03D05B021F
:100970005B0AE4B2E4E7002B32D08020C0030343DB
:100980005B025B0ADCE73200173214DB80221E2791
:1009900012041343BF1B1F2F0FDC144A94466444F8
:1009A0002A00A5402E00A340751EAE41FA403343F5
:1009B00013430026B0E70024D5E702225242961BDB
:1009C0001A00F240202F09D0094884466444A3400D
:1009D0002B435D1EAB41002613439DE70023F7E741
:1009E0000023ADE73400BFE780FCFFFF82FCFFFF80
:1009F000A2FCFFFF1C2101231B04984201D3000C21
:100A000010391B0A984201D3000A08391B09984281
:100A100001D30009043902A2105C40187047C04697
:100A200004030202010101010000000000000000B7
:100A3000024A1368013313607047C046E80800207B
:100A4000014B18687047C046E808002010B54160A7
:100A50000400FFF7F5FF206010BD10B50400FFF79C
:100A6000EFFF2368C31A6068013398428041404217
:100A700010BD10B501F0BFF810BD10B501F0C4F8FD
:100A800010BD10B501F0A8F810BD0000024A138A8D
:100A9000DB07FCD57047C046000010403F2210B570
:100AA000044B40061A81000C2E3A98611A80FFF719
:100AB000EDFF10BD000010403F2210B5044B800830
:100AC0001A810C3A986119641A80FFF7DFFF10BD94
:100AD000000010400379F0B50168002B2ED1802270
:100AE000D20553688B435360802500230F2602688C
:100AF000ED0511000124D94021420DD0D9B2072BB8
:100B000025D89C00A44634006746BC40E96AA1434E
:100B10000479BC402143E96201331A2BE9D18023D7
:100B20004179DB05012922D1D9681143D960817946
:100B300001291FD199680A439A60F0BD062BD3D1D1
:100B4000002380220371D20553680B43CBE7083999
:100B50000729E1D8370009492C6B591889008F40C3
:100B6000BC4307798F40390021432963D4E7D96812
:100B70009143DBE7996891439960DEE7F8FFFF3F17
:100B80008023DB05012901D1D86370471864FCE795
:100B90008022D2051368584010607047C02380221D
:100BA0001B06197852420A437F211A701A780A40AC
:100BB0001A707047C02301211B061A780A431A7065
:100BC0001A788A431A707047C0231B06186880077A
:100BD000C00F7047024B1868431E9841C0B270475F
:100BE000000400C030B50300012811D0022811D044
:100BF0000120032B0BD1084A08000B0020301D6890
:100C00005C1A0433A5508342F9D10020106230BD34
:100C1000024AF1E7024AEFE7B40400C06C0400C0E6
:100C2000900400C0030001280FD002280FD001203B
:100C3000032B09D1074B1A00C91A20321878C8545F
:100C400001339342FAD100207047034BF3E7034B83
:100C5000F1E7C046B40400C06C0400C0900400C0BA
:100C6000044B1A6A012902D110431862704782436B
:100C70001A62FBE700009040054B0122196B002827
:100C800002D00A431A63704791431963FBE7C046D9
:100C900000003040F8B54A4C0500236B01681B0783
:100CA00000D56DE009014748FFF748FAC3099AB239
:100CB000A284454ADB0101301340C01A400880B2CB
:100CC0003F2802D93F233F381840032760263F4B77
:100CD000C0B218703E4B2A7918783A405201B0439E
:100CE0001043187001206979227F39404901B243CD
:100CF0000A432277AA7919780240BA400730814323
:100D000011431970217F81430A432277EA79002A2F
:100D100038D102211A788A431A70227F8A4301202F
:100D200022772A7A216B1600C2402A4F06407602AB
:100D3000394031432163216B274E0240314012027A
:100D40000A432263697A226B0E00C140234F06409A
:100D50003A40B60332432263226B214E01403240B7
:100D6000C90311432163AA7A197802400F30120196
:100D7000814311431970237F83431A432277F8BDBF
:100D8000C90090E7022A0CD1042019781143197088
:100D9000197881431970217F0A432277227F824389
:100DA000BDE702211A780A431A700422187810430A
:100DB0001870207F01432177217F0A43AFE7C046A7
:100DC000000030400000127A80FF7F002800304091
:100DD0002C003040FFFDFFFFFFFEFFFFFFBFFFFFC6
:100DE000FF7FFFFF044B1A8F002902D010431887A2
:100DF000704782431A87FBE700003040024BC00572
:100E0000C00D18807047C04600003040014B188864
:100E1000C0B2704700003040054B002805DA5B681F
:100E20001840431E9841C0B270471B8BF8E7C0467C
:100E300000003040034B9B8F1840431E9841C0B2C6
:100E40007047C04600003040072202403820044965
:100E5000D2000B7883431800104308707047C046D7
:100E600034003040F0B583780178002B33D04078DF
:100E70004AB28001002A1BDA0F230B40083B1B4AB1
:100E80009B089B009B18FF22032517000D40ED00D7
:100E9000AF400240AA40DE69BE433243DA611F22FE
:100EA0004B0911401E3A8A4011499B00CA50F0BDBF
:100EB000FF270F4B92089200D21803233C00C02555
:100EC0000B40DB009C4038409840AD005659A6438B
:100ED00030435051E3E71F234A090B400121994059
:100EE0001300034A20339B00D150E0E700ED00E0FF
:100EF00000E100E010B504002020FFF78DFF01287D
:100F0000FAD0A0B2FFF77AFF10BD000070B5012142
:100F100086B006000920FFF7A3FE00F0ADF81C4BD9
:100F200001388000C3580024019300F0A5F8194B44
:100F30000138800001ADC35828002B71AC716C7171
:100F4000FFF7C8FD00F098F8134B01388000C35834
:100F5000019300F091F8114B01388000C35828002C
:100F60002B71FFF7B7FD0125032303A8037143711C
:100F700003728471C471447285720396FFF78AFE0E
:100F80002000FFF761FF2800FFF776FE06B070BD76
:100F9000D01C0410CC1C0410C81C0410C41C041069
:100FA000042313B5040001A80370013B437084704F
:100FB000FFF758FF21001020FFF714FF13BD0000BA
:100FC000054B10B51860E1204002FFF79FFF01209C
:100FD000FFF7E6FF10BDC046EC08002010B5FFF794
:100FE00089FF10BD034B10B51B68002B00D098473C
:100FF00010BDC046EC08002007B51020FFF71AFF0F
:10100000002809D107BDFFF701FF6B46D8710733F0
:1010100001211800FFF7E6FF1020FFF7FDFE002872
:10102000F1D0EFE710B50400C0B2FFF763FF200076
:1010300010BD70B50E0015000C00A31B9D4201DC15
:10104000280070BD2078FFF755FF0134F5E710B593
:1010500000F0D1FD10BD10B500F0CDFD10BD10B5F4
:101060000A00002100F0D0FD10BD00000122014B5C
:101070001A707047F0080020014B1878C0B2704712
:10108000F008002010B50F4C01280AD0002801D02C
:1010900002280ED0FFF7F0FF431E0C2058432058C3
:1010A00006E0FFF7E9FF431E0C2058432018406874
:1010B00010BDFFF7E1FF431E0C2058432018806845
:1010C000F6E7C046D41C041070477047704770475D
:1010D0007047704770477047704770477047704758
:1010E0007047704710B5084B1B7A002B09D1074B8E
:1010F0001B89052B05D90122054B1A70FEF7F9FF54
:10110000FEE7012010BDC0460000904000001048DE
:101110000C00002070B5FFF7E5FF012817D1002370
:1011200014481549154C1A188A4216D3002314483E
:101130001449154C1A188A4213D30021134B144A30
:10114000934212D30021134B134A93420FD3134BF4
:1011500083F3088800F012F970BDE5580433156078
:10116000E1E7E55804331560E4E702C3E8E702C3AA
:10117000EBE7C0462C0B0020380B002090420510F6
:10118000080000203400002064420510C000002048
:10119000CC020020CC0200202C0B0020006000209C
:1011A00070B588B001AC06000D0019222549200059
:1011B00000F021FD002E14D1234B1A8B002AFCD005
:1011C00001221A8316329A8100221A61954206D0B2
:1011D00010211E4B18681A6842400A42FBD008B022
:1011E00070BD4023A3731B3323750F3BE3722C3B6D
:1011F000237292336374164B16491B681A0C8A4289
:1012000005D170221B011340653A1343E375124B5D
:101210001B681A0C8A4208D1302162791B018A436B
:10122000627162790B40134363718023902224041E
:10123000240C5B021C43D205D460D1681942FCD156
:10124000BAE7C046181C04100000104810000048FF
:10125000E807001055AA0000E40700100822C0218A
:10126000F8B53F4B3F4D9A803F4A0904136AFF206F
:101270002B400B43C0211362136A09061B021B0A91
:101280000B431362C02292009446384B64469A582E
:10129000374E82433F38024360461A501A58C020E6
:1012A0003240000202431A51C122FF2792009C588B
:1012B000BC433F3F3C439C509C583F373440044321
:1012C0009C509C582C409C509C582402240A0C434F
:1012D0009C500832944664469A58324002431A5150
:1012E0001A59C0242A402404224364461A511A5928
:1012F0001202120A0A431A51C4229200944664460A
:101300009A58324002431A511A59C0242A402404E0
:10131000224364461A511A591202120A0A431A51F8
:10132000C52292009C58BC432700C0242743C024F8
:101330009F509F5824043E40304398509858054091
:101340002C439C5098580002000A014399500121F7
:101350000800FFF725FF074A074B1A6262B6F8BD7F
:1013600000001040FFFF00FF00ED00E000E100E0A2
:10137000FF00FFFF66000E000000904037B5FFF74A
:101380006DFFFFF773FE01210800FFF769FC0020E5
:10139000FFF778FE04000120FFF774FE04430220EB
:1013A000FFF770FE01256A46062304436846137161
:1013B000957155710094FFF78DFB0020FFF762FED9
:1013C00004002800FFF75EFE04430220FFF75AFEE8
:1013D00000212043FFF7D4FBC021194A194B1A48BA
:1013E0005360036A09061B021B0A0B4303620023B6
:1013F0009360073313601548FFF7E2FD144801F0CE
:10140000B1F8011E03D0134800F0ABFBFEE7124910
:10141000124800F0A6FB00F03BF8011E03D0104874
:1014200000F09FFBFEE70F4800F0BCFB10240E4BC2
:10143000DC6701F051F80D4B1C6000F037F9F6E75E
:1014400010E000E07E3E000000ED00E06D150410AD
:10145000E01C0410141D0410451D04104B1D041045
:10146000811D0410A61D041004E100E000E100E06D
:101470007047FEE7704710B5FFF7DAFA10BD704706
:1014800010B5FFF7B9FD10BD10B504F0C7FE10BDD3
:10149000F0B52C4C89B006AD21000822280000F0E0
:1014A000AAFB21000622083104A800F0A4FB04AA2C
:1014B0000621002001F00CF8041E06D0010022488D
:1014C00000F04FFB200009B0F0BD0421012000F026
:1014D000FBFF00F0EBFF041E02D001001B48EFE70A
:1014E0001B4800F05FFB0A260E236E446B4403AFDB
:1014F00001932100009733000822012000F050FFE3
:10150000041E02D001001348DAE7134800F04AFB3A
:101510003988308822000095082300F0CBFF041E94
:1015200002D001000D48CBE70D4800F03BFB00F076
:1015300035F9041E02D001000A48C1E70A4800F04C
:1015400031FBBFE7311C0410BD1D0410DE1D04106B
:10155000011E04101E1E04103F1E04105B1E04100A
:101560008E1E0410B81E0410DB1E0410F0B50026F9
:1015700089B002900391039B9E4201D309B0F0BD54
:10158000FF222D4C52002388934201D9002323804F
:10159000029B2A4D9B1919782288A9541878FFF7C5
:1015A0001DFD238801339BB2EA18013A127823808B
:1015B0000A2A04D1012B05D100221F4B1A800136C3
:1015C000F6B2D8E700240592EC541B4B1D88AC42C0
:1015D000F2DA2D1B142D00DD1425194B06A81B680B
:1015E00019000493059B5943FFF730FA154800F0A2
:1015F000D9FA124B1B190493134AEBB21188134A00
:101600001088049A0092002200F054FF642801D050
:101610002C19DAE720220E4F3B6813433B6020224F
:101620003B681342E8D000F057FF06A8FFF715FA11
:101630000028F4D0E0E7C046F40A0020F1080020BA
:10164000C01C0410511F0410160B0020140B0020A6
:10165000340B002030B50E248DB0114908AD2200A6
:101660000919280000F0C7FA0021080004F054F915
:1016700000200295010006900590049003900194CB
:1016800000900300020000F0A3FE011E04D00548F4
:1016900000F067FA0DB030BD034800F083FAF9E7B7
:1016A000311C0410FB1E0410291F041070B5022504
:1016B000044C23682B4204D0FFF7CCFF2368AB43D4
:1016C000236070BD340B0020084B10B51980012336
:1016D000074A002011680B431360FFF7D3FCFFF7A4
:1016E00057FA044800F05EFA10BDC046F20A002026
:1016F000340B00207B1F04100121154B10B51A6814
:1017000000208A431A60022219680A4304211A60E1
:101710001A688A431A601A681C318A431A601A6868
:101720000C490A401A601A680B490A401A601A6884
:101730000A490A401A601A6809490A401A60FFF704
:10174000A1FCFFF725FA074800F02CFA10BDC046AF
:10175000340B0020FFFEFFFFFFFDFFFFFFFBFFFF3D
:10176000FFF7FFFF781F041010B50800029A190058
:1017700000F082F810BD00002021024A13688B435C
:1017800013607047340B002010B5024800F00AFACD
:1017900010BDC0465E1F041070470000F0B5102455
:1017A0002D4D93B02900220006A800F024FA291933
:1017B00022000AA800F01FFA2900220020310EA8FA
:1017C00000F019FA254D220006A92800FFF751F96B
:1017D000234E0623009601222900022000F04BFE32
:1017E000071E34D11F4D22000AA92800FFF741F936
:1017F0001D4B3088059301230297049301970394AE
:10180000009413332A00022100F016FE071E1ED199
:1018100022000EA92800FFF72CF901233088134E6F
:10182000049302930B3303940093059601970833B6
:101830002A00022100F000FE041E08D10A4B328863
:1018400019880B4800F08DF9200013B0F0BD09484D
:1018500000F0A8F94724F7E74D1C04101A0B0020EC
:10186000140B0020040B0020160B0020180B002086
:10187000901F0410CE1F0410174B70B51B880E006C
:10188000013315001400984221D0144B1B880233F9
:1018900098421FD11378012B1CD1114A03331168D0
:1018A0000B43136016E02378782B04D10220FFF756
:1018B000E9FBFFF76DF92378792B04D10120FFF7BD
:1018C000E1FBFFF765F92078FFF7ACFB0134631B00
:1018D0009E42E8DC70BDC046180B0020160B0020AD
:1018E000340B0020F7B5061C0D1C01920124281CA6
:1018F000211CFEF723FC019B984218D3019B5C43FB
:10190000F5E7211C281CFEF719FC211C071C281CCC
:10191000FEF79AFC201C0D1C0199FEF799FC336818
:10192000041C5A1C3260092F04DD37371F70002C4D
:10193000E7D101E03037F9E7F7BD0000F0B585B039
:10194000039002900820141C00900B78002B00D10B
:10195000C2E04D1C252B00D0B8E04B78632B25D07E
:1019600011D8302B45D008D8252B00D1A8E02E2B3C
:1019700000D0A9E0CD1C03276BE00327322B68D0F1
:10198000582B4FD0A0E0692B17D005D8642B14D06A
:101990000627662B5DD097E0752B25D0782B41D09C
:1019A000732B00D090E0211D236811E0039B5A1C8B
:1019B0000392226804341A7086E02168261D0029EB
:1019C00014DA039B49425A1C03922D221A700DE02F
:1019D0001A78002A06D0039A501C03901878013315
:1019E0001070F5E70C1C6FE02168261D03A80A2281
:1019F0002BE08B78322B02D1CD1C022311E0342B4B
:101A000003D10420CD1C00900CE0362B03D106221C
:101A1000CD1C009206E0382B01D08D1C54E0CD1C6B
:101A2000082300932168261D0023009A93420AD2BE
:101A30009A00081CD04004D1039A501C0390302017
:101A400010700133F1E703A81022FFF74BFF341C9D
:101A50003AE0E31D07229343186859681C1CFEF7FF
:101A60003FFF00210834061CFEF7F0FC002807D0D9
:101A700080231B06F618039B5A1C03922D221A7012
:101A8000301CFEF70DFF0190019903A80A22FFF711
:101A900029FF039BBF005A1C03922E221A70124B7F
:101AA000301CF958FEF7DCFDFEF7FAFE0F4B019AE9
:101AB000F95851430A22411A03A8FFF713FF03E024
:101AC000039A511C03911370691C3EE7039A511C41
:101AD0000391291C137038E703980370039A029B43
:101AE000D01A05B0F0BDC04618200410F01F041035
:101AF00030B500230278002A31D0252A28D1427837
:101B0000451C692A14D006D8632A0ED0642A0FD047
:101B1000582A1AD115E0752A0AD0782A11D0732ACA
:101B200013D10C1D08681A1C05E00C1D5A1C12E08C
:101B30001A1C0B3207E0C11A895C00290BD0013254
:101B4000F9E71A1C08320C1D05E05A1C0C1C02E0B7
:101B50005A1C0C1C051C681C211C131CCAE7181CF1
:101B600030BD0FB4B3B500AF3C1C183420CC281CDA
:101B7000211C7C60FFF7BCFF0730C008C0006B462B
:101B80001B1A9D46291C221C68467C60FFF7D6FE66
:101B90006946021C0120FFF74CFABD46B6BC08BCE2
:101BA00004B0184738B5051CFEF7C0FA041C291C00
:101BB000221C0120FFF73DFA051C01200549021CEB
:101BC000FFF737FA01342818001B441EA041404299
:101BD00038BDC0467F1D041030B50024A24201D19B
:101BE000002005E0035D651C0C5DA34201D0181BBD
:101BF00030BD2C00F2E7002310B59A4200D110BD91
:101C0000CC5CC4540133F8E703008218934200D13E
:101C1000704719700133F9E7023F00023E30023C81
:101C200020023B4C023A400239B202345B02350BCF
:101C300000426C75654E524731AA0000E1800209EE
:101C4000426C75654E5247315F43686174669A0C09
:101C5000200008969EE2119EB1E0F273D9669A0CBC
:101C6000200008969EE2119EB1E1F273D9669A0CAB
:101C7000200008969EE2119EB1E2F273D9000000A6
:101C80008C070410DC060410DC060410DA060410CD
:101C90007E0704107E07041074070410DA0604108F
:101CA0007E070410740704107E070410DA0604107F
:101CB0008407041084070410840704101408041017
:101CC000E80300000100000000080000010000001F
:101CD0000001000040000000800000000040000003
:101CE00000700610000400000004000000780610D8
:101CF0003C0B0020E41A00000E0003007C000100F1
:101D0000020C170000000000FFFFFFFF640003004B
:101D1000070100004572726F7220696E20426C7577
:101D2000654E52475F537461636B5F496E697469B6
:101D3000616C697A6174696F6E282920307825306A
:101D400032780D0A00312E302E3000426C75654E0F
:101D500052472D3120424C45204368617420536521
:101D600072766572204170706C69636174696F6E20
:101D7000202876657273696F6E3A202573290D0AE3
:101D800000434841545F446576696365496E6974F0
:101D900028292D2D3E204661696C65642030782508
:101DA0003032780D0A00424C4520537461636B2039
:101DB000496E697469616C697A6564200053657461
:101DC00074696E672042445F4144445220666169F1
:101DD0006C65643A203078253032780D0A004572FF
:101DE000726F7220696E206163695F676174745FEE
:101DF000696E697428293A203078253032780D0AC6
:101E0000006163695F676174745F696E6974282932
:101E1000202D2D3E20535543434553530D0045720D
:101E2000726F7220696E206163695F6761705F69BC
:101E30006E69742829203078253032780D0A0061C7
:101E400063695F6761705F696E69742829202D2D51
:101E50003E20535543434553530D004572726F72F4
:101E600020696E2047617474205570646174652028
:101E70006368617261637465726973746963207603
:101E8000616C7565203078253032780D0A00616309
:101E9000695F676174745F7570646174655F6368BE
:101EA00061725F76616C75652829202D2D3E205367
:101EB0005543434553530D004572726F7220696E4E
:101EC000204164645F436861745F5365727669633F
:101ED00065203078253032780D0A004164645F4314
:101EE0006861745F536572766963652829202D2DBA
:101EF0003E20535543434553530D004572726F7254
:101F000020696E206163695F6761705F7365745FEC
:101F1000646973636F76657261626C6528293A2023
:101F20003078253032780D0A006163695F6761702F
:101F30005F7365745F646973636F76657261626C09
:101F4000652829202D2D3E20535543434553530DDD
:101F500000736572766572206D6F64650D00676150
:101F600074745F726561645F7065726D69745F72CD
:101F70006571756573740D00646973636F6E6E656A
:101F80006374696F6E20636F6D706C6574650D00AE
:101F90004368617420536572766963652061646487
:101FA00065642E0A545820436861722048616E644B
:101FB0006C6520253034582C2052582043686172BB
:101FC0002048616E646C6520253034580A004572E3
:101FD000726F72207768696C6520616464696E67EE
:101FE000204368617420736572766963652E000012
:101FF000000000000A00000064000000E803000088
:1020000010270000A086010040420F008096980033
:1020100000E1F50500CA9A3B0000000000002041E5
:102020000000C84200007A4400401C460050C347EC
:10203000002474498096184B20BCBE4C286B6E4E11
:102040000D020000070100009E0000006900000072
:102050004F000000350000002000000015000000C7
:10206000010102010201000201000202020102015B
:10207000010101010200020100E69D350E48010345
:10208000CCDBFDF4AC1191F4EFB9A5F9E9A7832CF1
:102090005E2CBE97F2D203B0208BD28915D08E1C55
:1020A000742430ED8FC24563765C15525ABF9A3264
:1020B000636DEB2A65499C80DCBD1A3CCDA6B899BE
:1020C0005899B740EB7B60FF4A503F10D2E3B3C949
:1020D00074385FC5A3D4F6493F6C888391AAF5A5EF
:1020E0003860370BDB5A6083BE000000A512051074
:1020F000ED12051029130510A9130510311505104F
:102100006913051065150510F114051081140510EB
:1021100041140510A1120510DD150510111405104C
:10212000A515051075110510CF150510051605101C
:102130002D0F0510710F0510990F0510A50E051034
:10214000E10F0510C50E0510E50E0510B90F0510BD
:10215000850E05104D0F0510090F0510E91105102A
:102160000D120510B51105109B110510FD0F05107E
:1021700005110510E50B0510510C0510290C051073
:10218000F50C0510450D0510A50C05101D0D0510CD
:10219000CD0C05106D0D0510790C0510090C0510FE
:1021A00079100510A1100510E1100510511005104F
:1021B000291005105F110510C71005103311051007
:1021C000231105104F110510451105106918051050
:1021D00085170510C51205100D13051049130510BC
:1021E000E9130510551505108913051089150510FB
:1021F00015150510C914051061140510FB349B5FFB
:10220000800000800010000000000000637C777BED
:10221000F26B6FC53001672BFED7AB76CA82C97DE2
:10222000FA5947F0ADD4A2AF9CA472C0B7FD932673
:10223000363FF7CC34A5E5F171D8311504C723C377
:102240001896059A071280E2EB27B27509832C1ABB
:102250001B6E5AA0523BD6B329E32F8453D100ED15
:1022600020FCB15B6ACBBE394A4C58CFD0EFAAFBF9
:10227000434D338545F9027F503C9FA851A3408FC1
:10228000929D38F5BCB6DA2110FFF3D2CD0C13ECD9
:102290005F974417C4A77E3D645D197360814FDC6E
:1022A000222A908846EEB814DE5E0BDBE0323A0A52
:1022B0004906245CC2D3AC629195E479E7C8376DD6
:1022C0008DD54EA96C56F4EA657AAE08BA78252EFB
:1022D0001CA6B4C6E8DD741F4BBD8B8A703EB56684
:1022E0004803F60E613557B986C11D9EE1F8981175
:1022F00069D98E949B1E87E9CE5528DF8CA1890D64
:10230000BFE6426841992D0FB054BB160000000192
:10231000000000020000000400000008000000109F
:102320000000002000000040000000800000001BB2
:042330000000003673
:10233400F0B5044600200F46079E059D174311D0B3
:1023440020290DD30127BF03BA4209D8914207D8E7
:10235400022C01D0032C05D1A02901D3A02A01D23B
:102364001220F0BD194629430AD09D42F8D30949E9
:102374008D4203D00849AD1F8D42F1D2062BEFD315
:10238400002C03D0022C01D0032CE9D1032EE7D872
:0C239400F0BD0000FFFF00007B0C00000B
:1023A0007CB5069D079C002805D0860705D1460709
:1023B00003D4060701D412207CBD002903D00129D3
:1023C00001D00229F7D10095019400F09DFA7CBD5F
:1023D000FFB587B0109D159E169C01930295009441
:1023E00007A807C81F463346FFF7A4FF00280ED1F1
:1023F0001398149903AA069443C211981299019054
:102400000095029107A807C83B4600F023FC0BB0DB
:02241000F0BD1D
:1024120070B51C4613460D46012C03D0022C03D086
:10242200122070BD022200E010221946FEF720FBA6
:062432002C70002070BDBB
:10243800F0B587B01C460B46054600A9023101A835
:102448000C9F0D9EFFF7E1FF00280ED1684605801E
:1024580084828775C6750E9901760F994176109911
:0E24680081766946119801F0C3FB07B0F0BD04
:1024760070B586B014461D460A4603466946881C52
:102486000A9EFFF7C3FF002804D1012C04D0022CBA
:1024960002D0122006B070BD23462A466946304651
:0624A60001F0E7FDF6E77E
:0824AC0010B502F04DF810BD5F
:1024B40038B56D46049C2A806B8023466A4602F038
:0424C400EBFA38BD3A
:0824C80010B502F0A9FF10BDE0
:0824D00010B502F0C7FF10BDBA
:1024D800F8B503F0EDFA1F4C032520682D024119C9
:1024E800097B002909D1A0300078C0072BD003F060
:1024F800FDF803F06DF80EF0B7FA00F0F9F820686F
:102508000146203140308A7E407882431AD1087EC5
:10251800002817D1104F3888000713D50920C006A6
:102528000669FA200AF054FC797AC9004018216833
:102538004919896F891B09020912884202DA0020A9
:102548000AF02EFEF8BD00F049FB01F0C5FE0BF0C5
:0C2558008DFBCEE72C0B0020C000002003
:1025640010B5C17F0024002901D011240CE00146DC
:1025740034220648FEF77BFA00F08AF8002801DAD4
:10258400072401E000F020F9204610BDB408002023
:1025940070B50F480F4D827F2868A8210A54014660
:1025A400002460310C754C758C75E122CA7580224B
:1025B4000A7602224A76302220310A774C77122298
:1025C4008A779F3002F0A6FF2868A030047070BD9F
:0825D400B40800202C0B0020CC
:1025DC0070B503F051FA09F0B7FE1E4E01223168B6
:1025EC0092021B4D8918C9696878887008F000FB45
:1025FC000FF038F803F03EFC2C46203C16492068BE
:10260C003268401881100520C00110180161616802
:10261C0089084161A168890881610CF0BFFE3068AE
:10262C00218BFF3081300184618B4184A18B4183EC
:10263C00618C8183297881770021017200F05AFA2C
:10264C0002F0CAFF02F0DAFE0EF09CFA70BD000038
:0C265C00D40800202C0B00200000FCEF34
:1026680010B509490C694A690321601E0843002115
:10267800401CFEF7FEF9204607F0A6F807F0DCF943
:0C26880007F0E6F910BD0000B4080020C7
:1026940070B5164903238A8BFF24521E1A438B7F7D
:1026A4002D346343D3180A8B282462439B184A8B26
:1026B400302462439B180A46203252783C246243F9
:1026C4009A180B4B0020D4184A69C043A2420BD17C
:1026D4008B22D200944207D90D69284607F076F878
:1026E40007F0ACF9401B201A70BD0000B4080020AC
:0426F400AD13000022
:1026F800F8B529480268D06D5832401C002815D01A
:10270800002426480025C07B00283ED00926F6066E
:102718002348002C1CD00021224F0B460D4641694E
:102728005B1CA94204D1002902D003E00124E8E798
:10273800BB42F3DB116000695060306991680002A8
:10274800090E000A09060143916000F02DF81DE00A
:10275800316993680902090A1C0E08D0018BC90760
:1027680012D04169116000695060D57210E0C81A32
:1027780000027D2400122403A04205D9180E000689
:102788000843906000F010F8F8BD5560002CFBD0AD
:1027980003CA0AF02DFBF8BD2C0B0020D40800203A
:0827A800000010488813000036
:1027B0000449002008610448012100686030C170AC
:0C27C00070470000000010482C0B0020A7
:1027CC00F8B501261E48402505601E4800270780E5
:1027DC00A9050920C00641601B4A9160016801608F
:1027EC00FFF73CFF194917208881194CB822206843
:1027FC0001462031CF768A76A022125CD20701D016
:10280C00F82200E0BE228A760021C943C165FEF79A
:10281C00BFF9FFF7B9FEFFF7DBFE20680721203078
:10282C008675C175012002F0F5FD05F04BFAFFF736
:10283C005DFF03488038056002210160F8BD00008F
:10284C0080E100E0C000002040000048000010487B
:04285C002C0B002021
:1028600038B516490C682146B631AA34A278D20789
:1028700003D0E27880231A43E270A27852071BD576
:102880002279520705D5E27A002A02D10122E272AA
:10289000488020794106090F0ED07821084069460A
:1028A0000870002048706A460221422000F00CFBAC
:1028B000207987210840207138BD00002C0B0020B2
:1028C00038B51048002104680846AA3405F08AFF8C
:1028D000694648702079C10704D001216A46117009
:1028E00088432071C0B2810705D502216A46117064
:1028F000FD210840207102216A46084600F0E4FAF2
:0829000038BD00002C0B002083
:10290800FFB50C4676A003C895B00191009003214D
:10291800C9026846C185012108A8734E017335684C
:102928001746AA3511F0E4F9002808D13068FF30BD
:102938000B3008F0B7FEA878002802D00C2019B098
:10294800F0BD159807220607360F012C05D0022C7A
:1029580006D0002C17D04220F1E71020064312E0E1
:10296800E120800005F002F860A103C912901391DC
:1029780012A802F0BBFF01200AF00AFC00287DD152
:1029880020200643092201230BA9284601F070FBE9
:102998000028F4D1022229461898FEF766F82988FB
:1029A800684601811521490281818783012181724D
:1029B8004E2282770024C47708A80170072242704B
:1029C800817002A90AA801F013F9002856D1022241
:1029D8000AA91E98FEF749F8082F02D26846C7844C
:1029E80002E008206946C88469468C840B4628881A
:1029F80009AA098D02F04EF800286BD13D496846B6
:102A080081810227878308A8847002A90AA801F097
:102A1800EFF800285ED102220AA91F98FEF725F8D0
:102A2800684604704470C7846B46288809AA198DC3
:102A380002F030F800284DD1F00725D02D4968461E
:102A4800C91C818108218183877708A8047002A99D
:102A58000AA801F0CDF800283CD1FF216846C171D1
:102A68008171C1708170417001704471047169464F
:102A78000820C88428880B4609AA00E02AE0098DA6
:102A880002F008F8002825D1B00625D5298868461F
:102A980001811849A531818101218183817287775C
:102AA800C47708A8047007214170847002A90AA895
:102AB80001F09EF800280DD1684601210170848438
:102AC800C1842C880346018D09AA204601F0E2FF43
:102AD800002801D0472032E7AE7000202FE7000021
:102AE800626C75656E7267212C0B00201F02000056
:082AF80000000000012A0000AB
:102B0000034800210068AA30C1708170704700003E
:042B10002C0B00206A
:102B140070B50C4B1C68AA342379DD0611D45B070D
:102B24000FD531280DD1E07A02280AD10420107083
:102B340000205070022000F0C5F92079FB210840E4
:082B4400207170BD2C0B002074
:102B4C00024610B5144801240068AA30022A19D094
:102B5C00052A03D0072A05D00A2A1AD14888FFF77C
:102B6C0079FE16E000790024020600D501248207C4
:102B7C0003D1C20601D480060BD5084600F024F818
:102B8C00044606E08178490703D50179FB22114000
:0C2B9C000171204610BD00002C0B002031
:102BA80010B509480468AA34E07880070BD50020DE
:102BB80009F08EFA022000F063F9E0780121084359
:0C2BC800FD210840E07010BD2C0B002027
:102BD40008B500216A461170694600F06BF808BD1B
:102BE40030B519488BB000680446AA340546E0782D
:102BF400B635010612D5A178C9070CD0800708D5CF
:102C0400042069460873684603F040F8022000F087
:102C140039F90020E0704006400EE070207940074A
:102C24000FD5E07A01280CD1152149026846C182EA
:102C340001210175688805AB044A00F0BBFA022043
:102C4400E0720BB030BD00002C0B0020FFFF000031
:102C5400F0B58DB00C4616A9E0C900210891099180
:102C64000A910B911599049105A9E0C112A962C9B1
:102C740000930191134601460396029522460120D2
:082C840000F04AF80DB0F0BDAC
:102C8C000949AE2209681423525CB6311A4208D0A5
:102C9C00498800050905090D000D814201D101206B
:0C2CAC0070470020704700002C0B002037
:102CB80030B5174B047A1B68C268AA331B799D0686
:102CC800AD0F04D10078042801D000200BE00120CA
:102CD80030BD401CC0B2155C012D08D01518203D30
:102CE800ED7F2818C0B2A042F3D3087830BD401C4D
:102CF800DD070124C0B2002D02D0105CC00703E03C
:102D08009B07F2D5105C80070028EED00C70ECE72A
:042D18002C0B002060
:102D1C00FFB595B00D46064620210CA8FEF799F993
:102D2C0000200490544800270468701EAA3404281C
:102D3C0002D8A078C0070BD0062E02D0002E0AD0E5
:102D4C0002E0A078800703D5E0784006800E0AD018
:102D5C000C2019B0F0BDA0788007F9D0E0784006BF
:102D6C00800EF5D007E0330000F0A0F907051A2417
:102D7C0033444A314C00002009F0A8F90028E8D16E
:102D8C00E078800708D5042069460873684602F08D
:102D9C0079FF022000F072F80120E0700020D8E7E3
:102DAC00012D2FD0042D2DD01F9800282AD10627B5
:102DBC00042008E0012D25D0042D23D01F980028D5
:102DCC0020D105270220E0700120049007E040206C
:102DDC0004E0022D01D0032D14D10820E070002353
:102DEC000BAA19461E9808F0B3FA03000FD000F096
:102DFC00D3F83FE0012D01D0042D03D11020EDE7D5
:102E0C00002D01D04220A4E704272020E6E7102261
:102E1C00002107A8FDF72BFE07A86C46279B269AD6
:102E2C001F990FC433462846189A179900F078F862
:102E3C000300DCD108A8017BC170259803AC049B6E
:102E4C00289A29990FC422AB07CB029200910190CA
:102E5C0039460CA8209B219A00F0A8F80300C6D193
:102E6C0007A809F0ADFB0300C1D1012009F02EF930
:0C2E7C000300BCD118466CE72C0B0020B2
:102E880010B50446C00603D51421BF20044007E04E
:102E98000A480068FF3001304079C0070AD0112184
:102EA800002220460DF084FF010004D020460DF0DA
:102EB8006BFF002010BD072010BD00002C0B002068
:102EC800F8B5891ECDB20746A81C0321084316464B
:102ED800401C8208F80603D51B21BF20074009E0E3
:102EE8000F480068FF3001304079000601D4002007
:102EF800F8BD182138460DF05BFF04000ED031787C
:102F0800217171786171A5712A46B11CE01DFDF728
:102F1800ACFD214638460DF037FFE8E70720F8BD3D
:042F28002C0B00204E
:102F2C00F8B501239B03069C002814D0042812D06A
:102F3C00022815D0032813D006239C461E461D4696
:102F4C000F46174310D0914203D8A94201D39A429D
:102F5C000ED94220F8BD3025AC4660262025EFE77F
:102F6C00A025AC46F026EBE761462180668001E0A7
:102F7C002180628020710798A071089820720998AE
:102F8C00002805D00146204606220930FDF76BFDCE
:082F9C00072060710020F8BD60
:102FA400034881220068A030417B1140417370477F
:042FB4002C0B0020C2
:102FB800F8B505461E463D4813460268079F00249B
:102FC800AA32002905D00220287001206870A97053
:102FD8000324002E10D090788006800F0CD11F207B
:102FE800001BB04252DB2E55641C28193246194684
:102FF800FDF73BFDA019C4B2002F0DD01F20001B08
:10300800B84243DB2F55641CE4B228193A460699A6
:10301800FDF72BFDE019C4B26846008C00281AD0D1
:103028006846808C002816D01A2C2FD805202855E1
:10303800641CE0B212212954401CC4B22819064667
:10304800022208A9FDF711FDB01C022209A9FDF70B
:103058000CFD241DE4B20C9800280FD01C2C15D8A8
:1030680002202855641CE0B20A212954401CC0B231
:103078002918401CC4B2084609F0A8FD0B9800287E
:103088000ED01F20011B0B98814201DA4220F8BDA7
:1030980028190B9A0A99FDF7E8FC0B982018C4B276
:1030A8002146284609F054FAF8BD00002C0B0020F0
:1030B80030B47446641E2578641CAB4200D21D46A9
:0A30C800635D5B00E31830BC18479D
:1030D20070B50E46054600F018F8040012D0FF2124
:1030E200E068413108420DD180040BD4012007F081
:1030F20044FD3060002803D02905090D07F041FE88
:08310200204670BD002070BDE5
:10310C0010B50E4900050B680121890259188A6A0D
:10311C000021000DA0331B7A0CE01C244C43145BE3
:10312C002405240D844203D11C204143881810BD72
:10313C00491CC9B28B42F0D8002010BD2C0B0020CA
:10314C00FFB583B01E4617460C46084602F00CFE2F
:10315C000546E0688079012802D0002007B0F0BD58
:10316C00204602F001FE01464120052901D03070B5
:10317C001AE0E168897A0A2900D03070002F0DD04E
:10318C00E16805226846891DFDF76DFC6D1E00AADD
:10319C00E9B230200132FFF7B7FC05E00398224674
:0C31AC000188022000F0F4F94120D7E770
:1031B800FFB58BB0074646241D781022991C06A837
:1031C800FDF741FF1A4805A906683846FF3641361B
:1031D800FFF77BFF070029D00599002925D0012D8D
:1031E80004D0022D02D042200FB0F0BD049506A8ED
:1031F8001DC8009001A81CC038460D9B0C9A07F00A
:103208009FFE040004D00121059807F061FD0DE040
:1032180001214903384608F080F8064878613046AD
:103228003C3005990EF096FB00E01F242046DBE7B2
:083238002C0B002041320410B0
:0A32400010B5502100F002F810BD97
:10324C00F0B58FB00D460446002069460874059011
:10325C0064480668A069FF3641360190002816D0F4
:10326C00A806800F03D02088FFF70AFD059004AB59
:10327C002046059A0199FFF763FF412870D0E807B3
:10328C0008D021880220019A00F014F968E041204E
:10329C000FB0F0BD680705D521880220019A00F017
:1032AC00D7F85DE0A80742D5019802F05DFDA17842
:1032BC00814205D921880220019A00F095F84FE04F
:1032CC00207B400605D501218902204608F023F811
:1032DC0085E0012007F04CFC050026D02088010574
:1032EC00090D284607F048FD21880220019A00F0BC
:1032FC007BF86168C8788A7800021043A278401E77
:10330C0017184878097802020A43BBB229462046AE
:10331C0007F0EDFD304629463C300EF019FB606895
:10332C00B9B2801C0DF071FB53E04520B0E7E80604
:10333C0016D5019802F018FD412702280ED90199E3
:10334C00801EC968CD79854201DD012617E0002D6C
:10335C0004D02946FDF75CF800290FD068460774A5
:10336C0001214903204607F0D2FF059800282AD0F6
:10337C0004AA01212F20FFF7C7FB2AE006460220F2
:10338C00002702901CE0059800280CD0029909AB8C
:10339C002A46091D019807F093FB294609AA3120FA
:1033AC00FFF7B2FB07E0019800902B462188022022
:1033BC00029A00F0B3F802984019C0B27F1C029038
:1033CC00B742E0DBCCE76846027C2188022000F0A3
:1033DC0011F90221A06907F079FC0020A0610020FE
:0833EC0056E700002C0B002045
:1033F400F7B506460F46029802F0BAFC401EC5B265
:10340400E81C03210843401C8208F00603D52A2146
:10341400BF20064009E00F480068FF300130C07942
:10342400000601D40020FEBD272130460DF0C2FC69
:1034340004000CD0A780A5712A460521E31D02983B
:1034440007F042FB214630460DF0A0FCEAE70720D6
:08345400FEBD00002C0B00205E
:10345C00F7B506460F46029802F086FC401EC5B230
:10346C00E81C03210843401C8208F00603D52B21DD
:10347C00BF20064007E00E480068FF300130007A9C
:10348C00C00712D0282130460DF090FC04000DD05E
:10349C00A780A5712A460521E31D029807F010FBB1
:1034AC00214630460DF06EFC0020FEBD0720FEBD0F
:0434BC002C0B0020B5
:1034C000F7B506460F46029802F054FC401EC5B2FE
:1034D000E81C03210843401C8208F00603D529217B
:1034E000BF20064009E00F480068FF300130C07976
:1034F000400601D40020FEBD262130460DF05CFCC4
:1035000004000CD0A780A5712A460521E31D02986E
:1035100007F0DCFA214630460DF03AFCEAE70720D6
:08352000FEBD00002C0B002091
:10352800FFB59B1E0746DDB2681D032108431646FA
:10353800401C820881B0F80603D53421BF2007401B
:103548000AE013480068FF300130407A800702D44F
:10355800002005B0F0BD312138460DF029FC0400EB
:1035680013D00298A0800A982346C168B01D085C51
:10357800E08025722A46B11D09330A9807F0A2FA9D
:10358800214638460DF000FCE2E70720E1E700009D
:043598002C0B0020D8
:10359C00F8B50F46D16815460446CE790222684626
:1035AC000831FDF760FAE8680222857AE00603D557
:1035BC003321BF20044009E00D480068FF30013082
:1035CC00007A000601D40020F8BD302120460DF011
:1035DC00EDFB010009D08F808E716A4612880A813A
:1035EC008D7220460DF0CEFBEDE70720F8BD0000F4
:0435FC002C0B002074
:1036000070B51546044601220E46C00603D5322188
:10361000BF20044007E00B480068FF300130407ACB
:10362000C0070BD02F2120460DF0C6FB010006D0AD
:103630008E808D7120460DF0ABFB002070BD072001
:0836400070BD00002C0B0020FE
:10364800F8B5069C1F4615460646002C17D0E068BC
:103658000222C01DFDF709FAE81E82B23B46072187
:10366800204607F091FB2AB20121204607F05EFBB5
:10367800012E06D01D20E16888710020F8BD472082
:06368800F8BD1B20F7E76E
:10369000F1B5FFB001248BB0600204900027BD4853
:1036A00006970068BA4DFF30413000908A9809AA09
:1036B0000005000D04A90AF021F90590002839D170
:1036C000042009A9049A8B18203BDB7F0B2B03D124
:1036D000521E0492401EF5D1002609A8811902222B
:1036E00001A80391FDF7C5F96846818808AB07AAD0
:1036F000009808F031F801281FD0022873D06846DE
:103700008088854200D30546844200D9204604467D
:1037100003988078012867D013360498864200D336
:1037200001270498811B042901D38642D5D3A542E1
:103730007CD905987FB00CB0F0BD07980290002F9F
:10374000EFD10299022228310398FDF79AF9002857
:103750001ED102982030017B03988078814217D1D6
:10376000012808D10298039902220830C91CFDF7EC
:1037700088F9002814D003988078022808D102988C
:10378000039910220830C91CFDF77BF9002807D0E7
:103790000298008DA84200D80546A04200D30446F6
:1037A000039909A88978012905D0133604998E4216
:1037B00003D3012706E0761DF8E78119022201A84C
:1037C000FDF757F90098029B083086462BE09C468F
:1037D0006846196A8288203310E0888B904206D3AD
:1037E000012F02D079E722E0C0E09042FAD9A84246
:1037F00000D80546A04200D3044609689942ECD19E
:103800006046036873450ED0188D904203D3012F94
:1038100009D1904207D9A84200D80546A04200D35A
:103820000446012FDED17345D1D17AE7A9E007988C
:103830000290002FF9D1029902221C310398FDF762
:1038400020F900281ED102982030C1780398807892
:10385000814217D1012808D1029803990222083029
:10386000C91CFDF70EF9002819D0039880780228AA
:1038700008D10298039910220830C91CFDF701F9FC
:1038800000280CD00298808BA84200D80546A042A0
:1038900000D3044603988078012823D003E00398DE
:1038A0008078012804D01336069801281CD01EE029
:1038B000029839490089884214D18A98FFF726FC7A
:1038C0000146029800F06AF802990222098C4843E6
:1038D0000299896940180399491DFDF7CAF801202A
:1038E0000690D7E7761DDFE70020B61C0690049807
:1038F000864201D3012705E009A88119022201A807
:10390000FDF7B7F80298089B0168009808308446D4
:1039100029E09E466846828820330EE0888B9042DC
:1039200004D3012F00D0D8E69042FCD9A84200D899
:103930000546A04200D3044609689942EED170467C
:10394000036863450FD0188D196A904203D3012F85
:1039500009D1904207D9A84200D80546A04200D319
:103960000446012FDFD16345D3D1DAE60398C0784E
:10397000022804D103980079292800D1B61C761DAD
:10398000CBE6224629468A9801F03EFA0590D1E618
:0C399000FFFF00002C0B002002290000AB
:10399C0030B5024623239B5C0020012B1BD11289DE
:1039AC000D4B9A4217D10D4A012312689B02D31872
:1039BC00A0329B6A127A0BE00C8825051C24444328
:1039CC001C5B2D0D2405240DA54204D0401CC0B257
:1039DC008242F1D8002030BD022900002C0B0020BF
:1039EC00830810B50B4800210268012080021018D2
:1039FC00A032806A127A08E01C244C43045B002C31
:103A0C0001D0994204D0491CC9B28A42F4D8002092
:083A1C0010BD00002C0B00207E
:103A240010B50446022000F01FF80E48012100687A
:103A3400890241188A6A0021A030007A06E01C231A
:103A44004B43D35A002B04D0491CC9B28842F6D840
:103A540010BD1C20414354528818042107F05FFC18
:083A640010BD00002C0B002036
:103A6C0003490968FF3181310A7A02430A727047AF
:043A7C002C0B0020EF
:103A800000B51138C0B2FFF7B1FF002804D0012201
:0A3A9000C16852051143C16000BD7A
:103A9C00F3B599B008880A90081D1DC84E880DAD65
:103AAC001DC58C8ACD8A087E1890C8692031039078
:103ABC00087802904878079088780690C878059026
:103ACC000F7900F017FD002817D101204002844225
:103ADC005DD8AC425BD8002F01D1AC4257D113A9B1
:103AEC000A9801F0C9FB012806D117AA3046139990
:103AFC0007F067FE012802D060201BB0F0BD139EBA
:103B0C0014A93046183007F08BFE149800280FD0FB
:103B1C00304616A9203007F083FE169B149A308D80
:103B2C00716AD21880188A8B904203D16220E4E724
:103B3C001F20E2E717982C4B02899A4227D12322A7
:103B4C00125C012A23D1006800681590189801288E
:103B5C001FD16846808E29221202801A0300FFF7BB
:103B6C00A5FA0604180404070A18022C0FD110E059
:103B7C00072C0CD10DE0042C09D3E00707D1012F41
:103B8C0007D1A54203D3042D01D3E80701D061204E
:103B9C00B3E7069B0598079A0B900C970992039A2A
:103BAC0002980A9308900695059407920DA81DC8D3
:103BBC00019002A81CC018980B460090324615992B
:103BCC00199800F0ABF9002897D168460649808E09
:103BDC00FF31884205D01998018800200A4601F06F
:0C3BEC000DF9002089E70000032800000C
:103BF800F3B5A5B008881A9088780C460E90102264
:103C0800091D10A8FDF71FFAA08A0D90A17D68462E
:103C18000172E07D1490207E2090677EA07E1F9028
:103C28000020064601460F9020A801810F20B94CBC
:103C380023902068FF304130199000F05DFC002887
:103C48000BD101210D98490288425CD821A91A9804
:103C580001F014FB012802D0602027B0F0BD2198A4
:103C6800169007F017FD1A9988420CD102A8019006
:103C78001398009010AD0ECD0E9807F0BFFC0028E9
:103C880001D06620E9E76846017A8806800F05D0EA
:103C980001200F902068A030007A4600C80703D0A2
:103CA8000F98401CB61C0F90080603D50F98401CAF
:103CB800B61C0F90169815A918301D9007F0B2FD84
:103CC8000F9C1598A41CA04235D3169818A920302B
:103CD8001C9007F0A7FD189900290CD01698169A81
:103CE800406A159B128D5918808B5118081AA042EA
:103CF80001D26220B1E7169884690E9825680128D8
:103D080003D0022803D06120A7E7052000E0132094
:103D1800E0832A463946149807F0CEFC61289CD0E7
:103D2800199FE28B4037788B398B411A0D98101800
:103D38008019814201DA1F208FE718A91C9807F023
:103D480071FD18980028169802D0406A808B00E010
:103D5800008D2599401C0880259801210088A083A2
:103D6800259802220088401CA8836B4820812046A1
:103D780020301690C1700021817081711998398B9B
:103D8800406D40186946A061097A0170A06929460A
:103D98001C31401CFCF769FE0E980128A0697DD0F3
:103DA800102210A9C01CFCF760FE2846102210A99A
:103DB8000830FCF75AFE388B133038832E462036ED
:103DC8000E98F0700D98E8831F98B0700D982084B5
:103DD8000D9828841998398B406D4018A8610021E6
:103DE8000D9AFCF746FE398B0D98081838831699FA
:103DF8000120087116990020487130716846007AD0
:103E0800810701D50121317101070227002902DA52
:103E1800317939433171410703D53179042211438E
:103E28003171400603D53079082108433071149860
:103E380070712098B07121461D9807F022FD214627
:103E48001C9807F0FFFC29461D9807F01AFD294623
:103E58001C9807F0F7FC0F98002841D068461A997B
:103E68008181A18BC18107844784012408A804713A
:103E780022A80A9008A884732399417314993820BA
:103E8800014008A801730721C1730025057468461D
:103E9800007AC00708D02148694600E02BE0088274
:103EA80003A924A8FFF7F6FD6846007A8006800F6C
:103EB80007D01A486946401E088203A924A8FFF7BC
:103EC800E9FD6846007A00060AD5292109026846F4
:103ED800018208A84473057303A924A8FFF7DAFD33
:103EE800259801880F98401C081882B2002000F01D
:103EF80087FF0020B1E6022210A9C01CFCF7B5FD1F
:103F08002846022210A90830FCF7AFFD388B401D67
:103F180053E700002C0B00200328000003290000B1
:103F2800FFB5514887B0036810AA1846FF304130E2
:103F38000590109801264D4F9288012803D1BA4266
:103F480001D1A0331E7A059D34464035688B2B8BF2
:103F5800C31A16984443099820300390A34220DAE4
:103F68001F200BB0F0BD2320405C012817D1088921
:103F78006F46388098420CD03C4F7F1EB84208D01C
:103F88007F1CB84205D07F1CB84202D0BF1CB84283
:103F980005D1A04201D0904201D16320E1E7096830
:103FA80003E02923314C1B02FF3C03988142DAD1FC
:103FB80009981B9984691898224607F07DFB6128A7
:103FC800CFD01C98012805D116991598814201D2A5
:103FD8006120C6E71598E083274620371C98B870FB
:103FE800169820840A98808B401CA083109801287A
:103FF80013D02046102211A90830FCF736FD10987E
:10400800F8700598298B406D4018A0611698298B87
:1040180070430818288300250FE011A80FC808343A
:104028000FC4183CEBE71698A16968430818159A5D
:104038001799FCF71AFD6D1CEDB2B542F3D3189829
:104048007871199838711A98B871099821461830FA
:1040580007F017FC2146039807F0F4FB0798A18B9B
:10406800018000207DE700002C0B002002290000C1
:10407800FFB58FB00F78102205A8891CFCF7E3FF65
:104088004C480568FF35413500F036FA00281FD145
:104098001198002855D0012F09D16846808A4649D1
:1040A800884204D12846A9680830814249D1284667
:1040B800103029690A90814209D00BA9284607F0D7
:1040C800B1FB11980B99401E0D90814202D21F201E
:1040D80013B0F0BD284608300CA9099007F0A2FBE0
:1040E8000C98002812D0EC680BA92046183007F06D
:1040F80099FB20460CA9203007F094FB208D0B99E2
:1041080041180C98401C081886B200E001260120CE
:104118000004811B1198814201D26220D8E72C69E2
:10412800286804901298012802D0022803D008E0D9
:104138000520C00200E021486085012F03D0022F2E
:1041480003D06120C4E7022200E01022204605A91E
:104158000830FCF78AFC20462030039007730F983C
:104168002146068026850A9807F08BFB2146099888
:1041780007F068FB26461836E661A6610398606278
:104188002062119C09E02846049907F07AFB304622
:10419800049907F057FB28680490641EF3D10F9820
:1041A80001880D98081882B2002000F029FE00202E
:1041B8008EE700002C0B00200118000001280000E9
:1041C800024608480168FF314931086803E0038D59
:1041D800934202D200688842F9D1884200D1002077
:0841E800704700002C0B0020C1
:1041F000024610B50E480168FF314931086803E0F6
:104200001C8D944203D8184603688B42F8D18B4228
:104210000CD1018D914209D20146036A20318B42B3
:1042200003D0416A898B914200D2002010BD00006A
:044230002C0B002033
:10423400034610B50B481B050168012080020818CD
:10424400826A00201B0DA031097A08E01C24444333
:10425400145B2405240D9C4203D0401CC0B281424F
:08426400F4D810BD2C0B002062
:10426C00FEB506461A480068FF304130012906D0D9
:10427C00022906D0032908D004290BD107E01830F5
:10428C0000E030300446022504E02430FAE704460E
:10429C003C34012520460DF040FB07462068009079
:1042AC003005000D019010E0009E002F01D0306809
:1042BC00009031890198814207D1314620460DF09A
:1042CC005FFB2946304606F001FD7F1EECD2FEBD99
:0442DC002C0B002087
:1042E000F0B589B00025554E029530680446FF347C
:1042F000413472B6014640314A7802231A434A706B
:1043000062B6FF218931095CC9077DD0012189028C
:104310004018876A44E029461C2251437A5A002AF1
:104320003CD0C9190791C9684A0219D48A0221D51B
:10433000022100910799FF30098801300905090D14
:104340000491C079012280070AD5212100980CF040
:1043500033FD010004D0049A8A8000980CF018FD07
:10436000079800880090079800F06AF800980BF012
:104370000DF813E0480711D5079800880005000DD7
:104380000AF0E0FF002805D1079800880005000D1D
:10439000FFF77EF90421079806F0BFFF6D1CEDB210
:1043A0003068A821095CA942B5D800F063FE204618
:1043B00024300DF0E3FA012802D0012000F046FD80
:1043C0002046183005460DF0D9FA012802D0002009
:1043D00000F03CFD3C3420460DF0D0FA01280DD011
:1043E00002A920460DF0E2FA0420029901F0B6FD80
:1043F0000028F0D0204602990DF0B0FA20460DF0CA
:10440000BDFA012818D100E016E028460DF0B6FAF2
:10441000012811D1316880020818826A0020A03179
:10442000097A07E01C2343439B189B895B0503D44F
:10443000401CC0B28142F5D809B0F0BD2C0B002061
:10444000F0B50446808985B0800415D52B484125F8
:1044500000680227FF300130407A26880122C00719
:104460000AD02F2138460CF0A7FC010004D08E8022
:104470008D7138460CF08CFC20880121FFF7F6FE88
:1044800020880221FFF7F2FE20880321FFF7EEFECD
:1044900020880421FFF7EAFE20880005000DFFF7C1
:1044A000C9FE8500294611316846017301F0F0FB11
:1044B000294612316846017301F0EAFB294613319F
:1044C0006846017301F0E4FB68461435057301F09A
:1044D000DFFB208800F03AFAA069002802D0022110
:1044E00006F0FAFB1C22002120466568FCF7C5FA9D
:1044F00017206560A07005B0F0BD00002C0B0020F7
:1045000070B510480468FF348134207AC00714D095
:10451000012006F00DFB0546207A80070FD507F035
:10452000DBF8044608481B21408C1E30FBF78CFE4C
:104530004443AC4203D9642070BD472070BD0020C5
:0C45400070BD00002C0B0020B40800200F
:10454C00F0B55FA093B000685E4910900868012236
:10455C0004469202FF3482184134926A2546403553
:10456C000F922A7AD20702D0632013B0F0BDAA8B27
:10457C009E2A01D99E2202E0172A01D21722AA8371
:10458C000F9AA826129286570CE01C2012997043A1
:10459C004718786811901C2200213846FCF767FAFE
:1045AC0011987860761E76B2002EEEDA204608302E
:1045BC00E0606460A060246008301190606120614C
:1045CC00FF22002108300DF0AAF92046FF2200211D
:1045DC0024300DF0A4F92046AA7F002130300DF0D4
:1045EC009EF92046FF2200213C300DF098F9002264
:1045FC002A7210461726334B06E01C2701467943D6
:10460C000F9FC9198E70401C1968A031097A81421C
:10461C00F3D800202883288C0026C7B2688CC0B23F
:10462C000F9007E02820E16C70430918204607F032
:10463C0007F9761CBE42F5D3002607E03020216D29
:10464C0070430918119807F0FBF8761C0F988642F6
:10465C00F4D30120FFF704FA0124684604701A49C8
:10466C0041802346042269460CA8FFF7FFFC002872
:10467C0022D16846018E8182144901830426068565
:10468C008475202108A881720024C4720473072148
:10469C004173847305A90DA8FFF7A8FA00280BD164
:1046AC00684604874687818E10AB0EAA008E00F0F8
:1046BC00EFF9002800D158E700202872472054E772
:1046CC000000FFFF2C0B002001180000052A000041
:1046DC00F3B5884881B004680F462646FF3681360C
:1046EC00307AFF344134C0075FD03889FEF708FDBB
:1046FC000546019800285AD0012846D1002D33D008
:10470C00287B400745D4384601F02EFB0100F868A1
:10471C0080793AD01E281AD12A7B120717D5082186
:10472C00284606F0F4FD2988012007F06BF80221D9
:10473C00384606F0CBFA42242D8801223721204638
:10474C000CF034FB0100E4D08D802046CEE0420614
:10475C000CD5D22801D05228CFD1A878884203D3C7
:10476C002046394618301DE0022162E0C1070DD009
:10477C001D2814D01B2812D0A889400515D401215E
:10478C0089022846AF6106F0C6FDB1E0287BC00661
:10479C0001D54520FEBD2988002007F021F82046D0
:1047AC00394624300DF0D4F8A2E04120FEBD002D96
:1047BC003ED0F86884791D2C3FD01B2C44D00121AD
:1047CC00384606F083FA032C49D0052C47D0072C29
:1047DC0045D0092C43D00B2C41D00D2C3FD00F2CA5
:1047EC003DD0112C3BD0132C39D0172C37D0192C91
:1047FC0035D0012C33D0022C38D0042C36D0062CDA
:10480C0034D0082C32D00A2C30D00C2C2ED00E2CBC
:10481C002CD0102C2AD0122C28D0162C26D0182CA8
:10482C0024D0522C22D0D22C20D01E2C34D037E0C5
:10483C000121384606F04AFA5AE02988012006F090
:10484C00CFFF3946022001E03946012000F052FD2D
:10485C00002825D00121384606F038FA20E0102136
:10486C00284606F054FD2988002017E040212846F0
:10487C0006F04DFDA889000512D5FF21013128460F
:10488C0006F049FD2988022006F0AAFF0121C90281
:10489C00284606F03CFD03E02988032006F0B2FF11
:1048AC00307A000624D5A8781B211E30FBF7C6FCF5
:1048BC000446012006F036F92146FBF7BFFC002820
:1048CC0016D00C49802209684226FF3181310B7ABF
:1048DC00044693430B722D880122362130460CF08E
:1048EC0065FA010004D08D80CC8030460CF04AFA79
:0848FC000020FEBD2C0B002082
:1049040010B5104A1268FF328132127AD20706D0EB
:1049140002280AD0052804D00A2810D101E0412039
:1049240010BD4888FFF77CF809E04888FEF7ECFBE7
:10493400002804D00122C16892051143C1600020FF
:0849440010BD00002C0B002047
:10494C00F1B5FFB085B047200190002000904E4893
:10495C0007688498FF374137FEF7D2FB0290002896
:10496C006BD0B968083749E000980D4604AC2018A4
:10497C006B460222283100F0FBFC009829462018D7
:10498C006B4601222C3100F0F3FC2E462036307B96
:10499C000099012804A809D040186B46102229461A
:1049AC00083100F0E5FC01902C6A24E040186B46BD
:1049BC000222F4E7009904A8401821466B46022213
:1049CC001C3100F0D5FC009904A8401821466B4618
:1049DC000122233100F0CCFC2320005D009901283A
:1049EC0004A82DD0401821466B461022083100F047
:1049FC00BFFC01902468B442DCD12968B942B3D120
:104A0C000198002819D10098810709D0011D890847
:104A1C0089000A1A009104A908180B21FCF727F841
:104A2C00029800880AF088FC002806D1849804AA11
:104A3C000005000D009908F059FC7FB006B0F0BDE0
:104A4C00401821466B460222083100F091FC01907F
:104A5C0020890E498842CDD120460299FEF798FF55
:104A6C004000A16903900918009A04A880186B46AD
:104A7C00022200F07DFC0190A16903980222081823
:104A8C000021FBF7F4FFB5E72C0B002002290000F6
:104A9C00F0B50746164885B000681D46FF308130DA
:104AAC00007A14460E46C00706D003A9384600F01B
:104ABC00E3FB01280AD102E0472005B0F0BD04AAAF
:104ACC003046039906F07DFE012801D06020F4E702
:104ADC00049A218860881268002900D0108C324614
:104AEC006E4631C603233946002000F003F8E4E794
:044AFC002C0B00205F
:104B0000FFB50B46002197B013910D4610910E464C
:104B10000591BB4914460A6821981146FF3141317D
:104B200003910021209F0691079141880A910088F6
:104B3000FF3281320C90107AC00706D011A91846B6
:104B400000F0A0FB01280AD102E047201BB0F0BD15
:104B500012AA2046119906F03AFE012801D06020E1
:104B6000F4E712982321095C01293DD10289A54966
:104B70008A42FAD10A9A0C9904688B18228C9342C3
:104B800032D82146203114918978012914D0E78B3D
:104B90008069007815908006800F7DD003984030A2
:104BA000007A800778D51A98032875D80028F4D0A1
:104BB000119B2068203315E0BA4215D3BB42DFD8E1
:104BC000E6E701898F4A914203D12322125C012A30
:104BD0000AD08C4AFF32914203D12321095C01297A
:104BE00003D000689842ECD103E186460028FBD050
:104BF00083480168012080020818806A0E900090A6
:104C00000020A031097A8C464AE01C22014651431B
:104C1000009A0891515A0A0540D0179A002A01D0EB
:104C200091423BD171468A6941000D91491C515C0A
:104C30000B020D99515C06AA591889B20D910021F9
:104C400011541A99C90710D01599C9060DD50D9997
:104C5000C9070AD0012111540D43009A08998918F7
:104C60008978059A914200D905911A99890715D535
:104C70001599890612D50D9989070FD506A90A5CE1
:104C800002231A430A54009A08991D438918897807
:104C9000059A914202D900E05FE00591401CC0B244
:104CA0008445B2D8002D58D000200E991CE01C225B
:104CB00042438B5A1B0515D0AB070BD55318DE6842
:104CC000B3070DD406AB1B5C9B0703D5330701D597
:104CD00046203BE7EB0705D05218127BD20701D0E4
:104CE000432033E7401CC0B28445E0D80598C01E7D
:104CF00080B2B84201D9384601E00598C01EC6B25C
:104D0000A8070BD5012005F039FF1390002872D0B9
:104D1000F21D012105F0F0FE00280DD1E8071CD09E
:104D2000012005F02BFF1090002805D0F21D012175
:104D300005F0E2FE002810D08020FEF797FE1398C1
:104D4000002802D0012105F0C7FF1098002802D0EA
:104D5000012105F0C1FF6420F8E6A1690C980A9AC8
:104D600008182299FBF785FE14988078012800D155
:104D7000E783002D3AD0224B0120196880020818E1
:104D8000816A002006AA0DE01C234343CF5A3F0549
:104D900006D05F18BC46FB68175C3B436746FB6068
:104DA000401CC0B2164B1B68A0331B7A8342EBD861
:104DB000A8070CD5139800902146F21C1C31022044
:104DC000A369FEF741FC0220139900F099FAE80765
:104DD0000CD0109800902146F21C1C310120A369D0
:104DE000FEF732FC0120109900F08AFA0020ADE6AF
:104DF00001E06120AAE68020FEF738FEABE7000064
:084E00002C0B00200328000028
:104E080010B50F4B04461B684120FF3381331B7AD2
:104E180086B09B0711D56B469981DA8100201882EC
:104E28000420588203AA04A9022302920191009047
:104E38001A4601212046FFF75FFE06B010BD0000AC
:044E48002C0B00200F
:104E4C00F0B5884989B00C68FF344134002871D022
:104E5C00012870D1204624300390656A0CF05DFD6A
:104E6C000646CAE028680890E86880790790288987
:104E7C00FEF746F9070071D0012005F079FE00908D
:104E8C00002858D0284600F06FFFB978884208D91E
:104E9C0000220420009B079906F041FA002005909F
:104EAC0081E04620059007980E284ED00ADC801E23
:104EBC000300FEF7FBF80B1A13201327132D1336E0
:104ECC0013411300162859D004DC102847D012289F
:104EDC0004D14AE018285AD01D287DD00022062083
:104EEC00009B079906F01BFA56E029463846009AB3
:104EFC0006F0B0F850E02A4639462046009B06F0F2
:104F0C0003F949E029463846009A0DF061F943E06F
:104F1C00F868000360D429463846009A0DF0D2FD9B
:104F2C003AE0F868000357D429463846009A0EF048
:104F3C003DF831E066E063E0F86800034CD42946A4
:104F4C003846009A0DF05EFB26E0F868000343D467
:104F5C0029463846009A0DF057FF1DE044E02946DB
:104F6C003846009A0DF0FEFB16E0F868800333D447
:104F7C0029463846009A0EF07DF90DE0F86880035A
:104F8C002AD429463846009A0DF072FA04E02946D4
:104F9C003846009A0CF0F0FF059045281CD04028AC
:104FAC001AD0462818D001210906384606F0AFF968
:104FBC001021384606F0AFF938880105090D009824
:104FCC0005F0DAFE20463C3000990CF0C1FC059847
:104FDC00002809D010E0FFE70121009805F076FECB
:104FEC00059845280CD0F2E7294603980CF0C8FC2C
:104FFC000221284605F06AFE089D761E00D331E793
:10500C0009B0F0BD204618300746A5690CF085FCA8
:10501C00044621E028680390E86880790790288985
:10502C00FEF76EF806000ED00798522801D0D22851
:10503C0006D1F06840030ED4294630460EF081F8B4
:10504C00F068400307D4294638460CF099FC02213D
:10505C00284605F03BFE039D002DD1D0641ED9D20D
:08506C00CEE700002C0B002030
:10507400F0B5824991B008680246FF3241320E927F
:105084000122920280180025866AEDE028461C2140
:1050940048430490305A00287ED0049880190B901D
:1050A400806900283CD00B99C968CA0538D54905E0
:1050B40036D5C06801278479BF0239460B9806F0BB
:1050C4002AF91D2C28D01B2C26D00B98807AA042BC
:1050D40002D0012C02D01FE0012C06D10B99896962
:1050E400C968C979491C884256D10B988089C00582
:1050F40009D50498315A022006F088FBFF210131BA
:105104000B9806F008F90B9841698847452803D1A4
:1051140039460B9806F003F90498305A0028BBD09E
:105124000E98243005900CF0FCFB07460E98446A58
:1051340095E0206810900499E068715A22898C46A1
:1051440009058079090D8A4246D11D2844D10B9B5B
:105154009B89DB0440D4012109030B9806F0DFF896
:105164000498315A032006F03FFB02200190049872
:10517400305A0890204600F0FBFDC01EC0B20690D5
:10518400E168022207A8C91DFBF771FC06980321F8
:10519400401D0843401C00E064E082083748006872
:1051A400FF300130007A800650D52D2101980BF094
:1051B40001FE0990002849D0031D0898188068460C
:1051C400808B588006981871072120465B1D069A2B
:1051D40005F07AFC099936E08A423FD11B283DD17B
:1051E4000220019060460A90204600F0C1FDC01ED6
:1051F400C0B20890E168022207A8C91DFBF737FC7A
:1052040008980321401D0843401C82081B4800687D
:10521400FF300130007A400618D52E2101980BF09A
:10522400C9FD0690002811D0031D0A98188068460D
:10523400808B588008981871072120465B1D089AB6
:1052440005F042FC069901980BF0A0FD2146059853
:105254000CF09AFB0221204605F03CFD109C7F1EB9
:1052640000D366E76D1CEDB204480068A030007AF4
:10527400A84200D90AE711B0F0BD00002C0B0020B1
:1052840010B5084A1268FF324932136806E01C8DD3
:10529400844202D101200B6010BD1B689342F6D1F9
:0852A400002010BD2C0B0020BE
:1052AC00F0B5944600220A706346114C1A60012333
:1052BC0022689B028646D2184120926A002310E095
:1052CC001C255D43AD18EF687646374207D0AF78A2
:1052DC000E78B74203D90F706046056000205B1C46
:1052EC00DBB22568A0352D7A9D42E9D8F0BD0000CF
:0452FC002C0B002057
:105300007CB506461C480D460468FF34413400292C
:1053100006D06A4601A93046FFF7C8FF002801D031
:1053200041207CBD284600F025FD69460A7990425F
:1053300003D90121284605F0FDFC009800880105ED
:10534000090D284605F01EFD204629463C300CF08C
:1053500005FB012E0AD00821009805F0E2FF009815
:105360000222C1689143C16000207CBD0098C168E1
:0C53700049084900F7E700002C0B002062
:10537C0010B51C68A4181C6001235B029C4203D866
:0C538C00FBF771FB002010BD412010BD9C
:10539800F7B5174600241BE000981049001940187B
:1053A8008608019800190546FBF774F80102E878A9
:1053B800090A0006014309480D46B10040420E188B
:1053C80029463046FBF774FB3068854204D1241D1A
:1053D800BC42E1DB0020FEBD4A20FEBD0000FCEF20
:1053E80030B50D460446002307E000F06BF8E054A2
:1053F800000AE1189B1C4870DBB2AB42F5D330BD04
:1054080010B50448042200680021FF301D30FBF766
:0854180030FB10BD2C0B00203D
:1054200010B5012817D8072915D80C4A1268134659
:1054300020339875D9758007C906000E090E0143FF
:105440000020074BA03203E08401E418A172401C45
:10545000147A8442F8DC002010BD00002C0B0020E0
:045460000001002027
:10546400134610B5174A12687432002819D006285A
:1054740011D008280CD018280AD028280BD02A28A4
:1054840009D02C280AD02E280BD0D02812D013E013
:10549400102908D010E0022905D00DE0012902D01E
:1054A4000AE0062908D110180A461946FBF7DFFA64
:1054B400002010BD012901D0122010BD18780AF077
:0854C400A0FC10BD2C0B002020
:1054CC000B2000070168490707D5016804229143A6
:1054DC000160016808221143016041684168C907F5
:0854EC00FCD0806880B270471B
:1054F40000B5FFF7E9FF0346FFF7E6FF00041818BD
:0255040000BDE8
:1055060004E003780B70401C491C521E002AF8DC8C
:025516007047DC
:10551800064AD1690907090F0170D2691206120FEC
:1055280012011143017000207047000000009040F4
:105538003EB50B4801AA0468694602A8643400F025
:105548001FF800280BD06846007AE18801228240C3
:10555800114204D069460978019AFCF719F93EBD51
:045568002C0B0020E8
:10556C000548002100686430017141710268D2085D
:0C557C00D2000260C18070472C0B0020A0
:1055880070B514460D4A136872B664331A79002A46
:1055980001D0012500E0002500221A715A79027015
:1055A80018784007400F087018684001000A00F09A
:1055B80095FB206062B6284670BD00002C0B0020C9
:1055C80003E008700012491C521E002AF9DC7047DB
:0C55D80010B502F025FF00F02BF810BD0C
:1055E40070B5134C00252068F4210D540622FF21C8
:1055F400F530FBF740FA236820211846E033DD76C6
:1056040019771F21597707220021FE30FBF733FA5F
:1056140020680522FF30FF210630FBF72CFA2068B2
:10562400FF22FF30002111300CF07DF970BD000025
:045634002C0B00201B
:10563800F0B52D4C91B02068E030007D800748D54A
:10564800FBF7BEFA01284CD1002505F099F906466A
:10565800FBF7BCFA012800D10325002E33D002271E
:10566800012E02D0022E2ED11CE069460220FBF743
:10567800D5FA032008A9FBF7D1FAA72120688900E9
:1056880041180120FBF7CAFA2068A0300078C0074B
:1056980001D0002000E0102038436A46294600F077
:1056A800F9F810E069460220FBF7B8FA2068A03044
:1056B8000078C00701D0002000E0102038436A4677
:1056C800294600F08FF82068FD22E030017D114066
:1056D800017572B6206880224030417811434170CC
:0C56E80062B6002011B0F0BD2C0B0020B9
:1056F40070B5174C2068FF3011300CF03DF90028CC
:1057040015D12068FF30013005690BE028460BF005
:10571400D7FF00280BD120682946FF3011300CF048
:1057240033F92D682068FF3011308542EED12068AE
:10573400FF3011300CF020F9012807D172B620682F
:105744004022403041781143417062B670BD000080
:045754002C0B0020FA
:10575800F1B5234CF42120680C27095C0225890740
:1057680090B000290EDBA726B60082192021002060
:105778000BF06AF9002805D14021109A0BF064F962
:10578800002811D020216846FBF765FC2068A0306E
:105798000078C00701D0002000E0102028436A46A6
:1057A800394600F01FF817E020680146E030027D16
:1057B8002A43027572B6403148784006400E487058
:1057C80062B6402268461099FBF74FF9206869468F
:1057D800801905F0DFF80027384611B0F0BD000049
:0457E8002C0B002066
:1057EC00F8B51746054609220E46C00603D5092111
:1057FC00BF20054009E00E480068E030017F8906B3
:10580C0012D5807FC0070FD0072128460BF0CEFAA7
:10581C0004000BD0267120223946601DFBF723F9BA
:10582C00214628460BF0AEFA0020F8BD0720F8BD43
:04583C002C0B002011
:1058400030B591B00C2440216846FBF708FC1248A3
:10585000022302681046E030017D8D07002D0CDA2E
:10586000A0321078C00701D0002000E010201843BB
:105870006A46214600F012F80BE01943017572B632
:10588000403250784006400E507062B605F01AF86B
:0C5890000024204611B030BD2C0B00207D
:10589C00F8B51746054611220E46C00603D5082159
:1058AC00BF2005400BE00F480068E030017F8906FF
:1058BC0002D5407F000601D40020F8BD0621284601
:1058CC000BF074FA04000AD0267140223946601D90
:1058DC00FBF7C9F8214628460BF054FAECE70720F1
:0858EC00F8BD00002C0B0020A8
:1058F40030B5074A034600211268084654185D5C17
:10590400E034491CC9B265770829F7D330BD0000DB
:045914002C0B002038
:1059180010B50A461F2801D9122010BD01461046AD
:0659280007F05AF810BD63
:10592E00FEB5017CC90601D5012600E00226022142
:10593E00009101890291857A0190681D0321084327
:10594E00401C82080027102100980BF02EFA04004C
:10595E0011D00298A080A671E771258123462A46B0
:10596E0000210A33019805F0AAF8214600980BF0A1
:0A597E0008FA0020FEBD0720FEBD60
:1059880070B506460225048901220F2128460BF02E
:105998000FFA01000CD08C800122CA8028460BF037
:1059A800F3F900240121304605F092F9204670BD34
:0459B8000724FBE7DE
:1059BC00074A914202DC5242914200DA1146FF2220
:1059CC00993251430A1251180A1451180818704789
:0459DC00FFFF4F007A
:1059E00010B50920C00600690002000A00F07AF92B
:0259F00010BDE8
:0259F2007047FC
:1059F40010B50300FDF75EFB3A332D2D2D1E21302B
:105A0400332A2A2A2A2A2A2A2A2A2424242424240D
